{
  "contracts/Groth16Verifier.sol": {
    "Groth16Verifier": {
      "abi": [
        {
          "inputs": [
            {
              "internalType": "uint256[2]",
              "name": "_pA",
              "type": "uint256[2]"
            },
            {
              "internalType": "uint256[2][2]",
              "name": "_pB",
              "type": "uint256[2][2]"
            },
            {
              "internalType": "uint256[2]",
              "name": "_pC",
              "type": "uint256[2]"
            },
            {
              "internalType": "uint256[1]",
              "name": "_pubSignals",
              "type": "uint256[1]"
            }
          ],
          "name": "verifyProof",
          "outputs": [
            {
              "internalType": "bool",
              "name": "",
              "type": "bool"
            }
          ],
          "stateMutability": "view",
          "type": "function"
        }
      ],
      "evm": {
        "bytecode": {
          "linkReferences": {},
          "object": "6080604052348015600f57600080fd5b506106018061001f6000396000f3fe608060405234801561001057600080fd5b506004361061002b5760003560e01c806343753b4d14610030575b600080fd5b61004a6004803603810190610045919061052c565b610060565b60405161005791906105b0565b60405180910390f35b600061048d565b7f30644e72e131a029b85045b68181585d2833e84879b9709143e1f593f00000018110610098576000805260206000f35b50565b600060405183815284602082015285604082015260408160608360076107d05a03fa9150816100ce576000805260206000f35b825160408201526020830151606082015260408360808360066107d05a03fa9150816100fe576000805260206000f35b505050505050565b600060808601600087017f1e9598e04174376ded9f39895e2738b56e9ca3388a9b746264c6dd1965a9c42b81527f228c4ef2d78e84d8ec61c4adfd3123da4720238602064fe5588137494e238f0360208201526101a960008801357f2946ff94afca55ff35e930d9d4b006f6f13f1816031554b03dfc3c089da747497f18ebbd0da5e282aa3bddbbeec4ac1cd011eb8435b315b7e92be6c745a1ddf2df8461009b565b833582527f30644e72e131a029b85045b68181585d97816a916871ca8d3c208c16d87cfd4760208501357f30644e72e131a029b85045b68181585d97816a916871ca8d3c208c16d87cfd4703066020830152843560408301526020850135606083015260408501356080830152606085013560a08301527f245229d9b076b3c0e8a4d70bde8c1cccffa08a9fae7557b165b3b0dbd653e2c760c08301527f253ec85988dbb84e46e94b5efa3373b47a000b4ac6c86b2d4b798d274a18230260e08301527f07090a82e8fabbd39299be24705b92cf208ee8b3487f6f2b39ff27978a29a1db6101008301527f2424bcc1f60a5472685fd50705b2809626e170120acaf441e133a2bd5e61d2446101208301527f0ae1135cffdaf227c5dc266740607aa930bc3bd92ddc2b135086d9da2dfd3e2a6101408301527f2b86859fd3d55c9d150fb3f0aeba798826493dd73d357ab0f9fdaced9fc81829610160830152600088015161018083015260206000018801516101a08301527f198e9393920d483a7260bfb731fb5d25f1aa493335a9e71297e485b7aef312c26101c08301527f1800deef121f1e76426a00665e5c4479674322d4f75edadd46debd5cd992f6ed6101e08301527f090689d0585ff075ec9e99ad690c3395bc4b313370b38ef355acdadcd122975b6102008301527f12c85ea5db8c6deb4aab71808dcb408fe3d1e7690c43d37b4ce6cc0166fa7daa610220830152853561024083015260208601356102608301527f27db36233c8bbd679650f8e13ad5ed6877f29025a278400c477cec8352946a266102808301527f1b7b6ea83c68387cbefc7a7fd88bd5940e523a13148f838eaa2d6e170b7982c06102a08301527f2c6cf5228008e245ebe1c8cab31bb1dd2c0b82e595d5ce9b9b446e2202e78b0f6102c08301527f0335b67f38b36be45580deeda1af3625c28982744cf441fa9c4f65f985f2f9d96102e08301526020826103008460086107d05a03fa82518116935050505095945050505050565b60405161038081016040526104a56000840135610067565b6104b2818486888a610106565b8060005260206000f35b600080fd5b600080fd5b6000819050826020600202820111156104e2576104e16104c1565b5b92915050565b600081905082604060020282011115610504576105036104c1565b5b92915050565b600081905082602060010282011115610526576105256104c1565b5b92915050565b6000806000806101208587031215610547576105466104bc565b5b6000610555878288016104c6565b9450506040610566878288016104e8565b93505060c0610577878288016104c6565b9250506101006105898782880161050a565b91505092959194509250565b60008115159050919050565b6105aa81610595565b82525050565b60006020820190506105c560008301846105a1565b9291505056fea264697066735822122001bef48294865f166c7290c687262f95592a7e3f731a1c08c6d0e5ad78f9bf0a64736f6c634300081c0033",
          "opcodes": "PUSH1 0x80 PUSH1 0x40 MSTORE CALLVALUE DUP1 ISZERO PUSH1 0xF JUMPI PUSH1 0x0 DUP1 REVERT JUMPDEST POP PUSH2 0x601 DUP1 PUSH2 0x1F PUSH1 0x0 CODECOPY PUSH1 0x0 RETURN INVALID PUSH1 0x80 PUSH1 0x40 MSTORE CALLVALUE DUP1 ISZERO PUSH2 0x10 JUMPI PUSH1 0x0 DUP1 REVERT JUMPDEST POP PUSH1 0x4 CALLDATASIZE LT PUSH2 0x2B JUMPI PUSH1 0x0 CALLDATALOAD PUSH1 0xE0 SHR DUP1 PUSH4 0x43753B4D EQ PUSH2 0x30 JUMPI JUMPDEST PUSH1 0x0 DUP1 REVERT JUMPDEST PUSH2 0x4A PUSH1 0x4 DUP1 CALLDATASIZE SUB DUP2 ADD SWAP1 PUSH2 0x45 SWAP2 SWAP1 PUSH2 0x52C JUMP JUMPDEST PUSH2 0x60 JUMP JUMPDEST PUSH1 0x40 MLOAD PUSH2 0x57 SWAP2 SWAP1 PUSH2 0x5B0 JUMP JUMPDEST PUSH1 0x40 MLOAD DUP1 SWAP2 SUB SWAP1 RETURN JUMPDEST PUSH1 0x0 PUSH2 0x48D JUMP JUMPDEST PUSH32 0x30644E72E131A029B85045B68181585D2833E84879B9709143E1F593F0000001 DUP2 LT PUSH2 0x98 JUMPI PUSH1 0x0 DUP1 MSTORE PUSH1 0x20 PUSH1 0x0 RETURN JUMPDEST POP JUMP JUMPDEST PUSH1 0x0 PUSH1 0x40 MLOAD DUP4 DUP2 MSTORE DUP5 PUSH1 0x20 DUP3 ADD MSTORE DUP6 PUSH1 0x40 DUP3 ADD MSTORE PUSH1 0x40 DUP2 PUSH1 0x60 DUP4 PUSH1 0x7 PUSH2 0x7D0 GAS SUB STATICCALL SWAP2 POP DUP2 PUSH2 0xCE JUMPI PUSH1 0x0 DUP1 MSTORE PUSH1 0x20 PUSH1 0x0 RETURN JUMPDEST DUP3 MLOAD PUSH1 0x40 DUP3 ADD MSTORE PUSH1 0x20 DUP4 ADD MLOAD PUSH1 0x60 DUP3 ADD MSTORE PUSH1 0x40 DUP4 PUSH1 0x80 DUP4 PUSH1 0x6 PUSH2 0x7D0 GAS SUB STATICCALL SWAP2 POP DUP2 PUSH2 0xFE JUMPI PUSH1 0x0 DUP1 MSTORE PUSH1 0x20 PUSH1 0x0 RETURN JUMPDEST POP POP POP POP POP POP JUMP JUMPDEST PUSH1 0x0 PUSH1 0x80 DUP7 ADD PUSH1 0x0 DUP8 ADD PUSH32 0x1E9598E04174376DED9F39895E2738B56E9CA3388A9B746264C6DD1965A9C42B DUP2 MSTORE PUSH32 0x228C4EF2D78E84D8EC61C4ADFD3123DA4720238602064FE5588137494E238F03 PUSH1 0x20 DUP3 ADD MSTORE PUSH2 0x1A9 PUSH1 0x0 DUP9 ADD CALLDATALOAD PUSH32 0x2946FF94AFCA55FF35E930D9D4B006F6F13F1816031554B03DFC3C089DA74749 PUSH32 0x18EBBD0DA5E282AA3BDDBBEEC4AC1CD011EB8435B315B7E92BE6C745A1DDF2DF DUP5 PUSH2 0x9B JUMP JUMPDEST DUP4 CALLDATALOAD DUP3 MSTORE PUSH32 0x30644E72E131A029B85045B68181585D97816A916871CA8D3C208C16D87CFD47 PUSH1 0x20 DUP6 ADD CALLDATALOAD PUSH32 0x30644E72E131A029B85045B68181585D97816A916871CA8D3C208C16D87CFD47 SUB MOD PUSH1 0x20 DUP4 ADD MSTORE DUP5 CALLDATALOAD PUSH1 0x40 DUP4 ADD MSTORE PUSH1 0x20 DUP6 ADD CALLDATALOAD PUSH1 0x60 DUP4 ADD MSTORE PUSH1 0x40 DUP6 ADD CALLDATALOAD PUSH1 0x80 DUP4 ADD MSTORE PUSH1 0x60 DUP6 ADD CALLDATALOAD PUSH1 0xA0 DUP4 ADD MSTORE PUSH32 0x245229D9B076B3C0E8A4D70BDE8C1CCCFFA08A9FAE7557B165B3B0DBD653E2C7 PUSH1 0xC0 DUP4 ADD MSTORE PUSH32 0x253EC85988DBB84E46E94B5EFA3373B47A000B4AC6C86B2D4B798D274A182302 PUSH1 0xE0 DUP4 ADD MSTORE PUSH32 0x7090A82E8FABBD39299BE24705B92CF208EE8B3487F6F2B39FF27978A29A1DB PUSH2 0x100 DUP4 ADD MSTORE PUSH32 0x2424BCC1F60A5472685FD50705B2809626E170120ACAF441E133A2BD5E61D244 PUSH2 0x120 DUP4 ADD MSTORE PUSH32 0xAE1135CFFDAF227C5DC266740607AA930BC3BD92DDC2B135086D9DA2DFD3E2A PUSH2 0x140 DUP4 ADD MSTORE PUSH32 0x2B86859FD3D55C9D150FB3F0AEBA798826493DD73D357AB0F9FDACED9FC81829 PUSH2 0x160 DUP4 ADD MSTORE PUSH1 0x0 DUP9 ADD MLOAD PUSH2 0x180 DUP4 ADD MSTORE PUSH1 0x20 PUSH1 0x0 ADD DUP9 ADD MLOAD PUSH2 0x1A0 DUP4 ADD MSTORE PUSH32 0x198E9393920D483A7260BFB731FB5D25F1AA493335A9E71297E485B7AEF312C2 PUSH2 0x1C0 DUP4 ADD MSTORE PUSH32 0x1800DEEF121F1E76426A00665E5C4479674322D4F75EDADD46DEBD5CD992F6ED PUSH2 0x1E0 DUP4 ADD MSTORE PUSH32 0x90689D0585FF075EC9E99AD690C3395BC4B313370B38EF355ACDADCD122975B PUSH2 0x200 DUP4 ADD MSTORE PUSH32 0x12C85EA5DB8C6DEB4AAB71808DCB408FE3D1E7690C43D37B4CE6CC0166FA7DAA PUSH2 0x220 DUP4 ADD MSTORE DUP6 CALLDATALOAD PUSH2 0x240 DUP4 ADD MSTORE PUSH1 0x20 DUP7 ADD CALLDATALOAD PUSH2 0x260 DUP4 ADD MSTORE PUSH32 0x27DB36233C8BBD679650F8E13AD5ED6877F29025A278400C477CEC8352946A26 PUSH2 0x280 DUP4 ADD MSTORE PUSH32 0x1B7B6EA83C68387CBEFC7A7FD88BD5940E523A13148F838EAA2D6E170B7982C0 PUSH2 0x2A0 DUP4 ADD MSTORE PUSH32 0x2C6CF5228008E245EBE1C8CAB31BB1DD2C0B82E595D5CE9B9B446E2202E78B0F PUSH2 0x2C0 DUP4 ADD MSTORE PUSH32 0x335B67F38B36BE45580DEEDA1AF3625C28982744CF441FA9C4F65F985F2F9D9 PUSH2 0x2E0 DUP4 ADD MSTORE PUSH1 0x20 DUP3 PUSH2 0x300 DUP5 PUSH1 0x8 PUSH2 0x7D0 GAS SUB STATICCALL DUP3 MLOAD DUP2 AND SWAP4 POP POP POP POP SWAP6 SWAP5 POP POP POP POP POP JUMP JUMPDEST PUSH1 0x40 MLOAD PUSH2 0x380 DUP2 ADD PUSH1 0x40 MSTORE PUSH2 0x4A5 PUSH1 0x0 DUP5 ADD CALLDATALOAD PUSH2 0x67 JUMP JUMPDEST PUSH2 0x4B2 DUP2 DUP5 DUP7 DUP9 DUP11 PUSH2 0x106 JUMP JUMPDEST DUP1 PUSH1 0x0 MSTORE PUSH1 0x20 PUSH1 0x0 RETURN JUMPDEST PUSH1 0x0 DUP1 REVERT JUMPDEST PUSH1 0x0 DUP1 REVERT JUMPDEST PUSH1 0x0 DUP2 SWAP1 POP DUP3 PUSH1 0x20 PUSH1 0x2 MUL DUP3 ADD GT ISZERO PUSH2 0x4E2 JUMPI PUSH2 0x4E1 PUSH2 0x4C1 JUMP JUMPDEST JUMPDEST SWAP3 SWAP2 POP POP JUMP JUMPDEST PUSH1 0x0 DUP2 SWAP1 POP DUP3 PUSH1 0x40 PUSH1 0x2 MUL DUP3 ADD GT ISZERO PUSH2 0x504 JUMPI PUSH2 0x503 PUSH2 0x4C1 JUMP JUMPDEST JUMPDEST SWAP3 SWAP2 POP POP JUMP JUMPDEST PUSH1 0x0 DUP2 SWAP1 POP DUP3 PUSH1 0x20 PUSH1 0x1 MUL DUP3 ADD GT ISZERO PUSH2 0x526 JUMPI PUSH2 0x525 PUSH2 0x4C1 JUMP JUMPDEST JUMPDEST SWAP3 SWAP2 POP POP JUMP JUMPDEST PUSH1 0x0 DUP1 PUSH1 0x0 DUP1 PUSH2 0x120 DUP6 DUP8 SUB SLT ISZERO PUSH2 0x547 JUMPI PUSH2 0x546 PUSH2 0x4BC JUMP JUMPDEST JUMPDEST PUSH1 0x0 PUSH2 0x555 DUP8 DUP3 DUP9 ADD PUSH2 0x4C6 JUMP JUMPDEST SWAP5 POP POP PUSH1 0x40 PUSH2 0x566 DUP8 DUP3 DUP9 ADD PUSH2 0x4E8 JUMP JUMPDEST SWAP4 POP POP PUSH1 0xC0 PUSH2 0x577 DUP8 DUP3 DUP9 ADD PUSH2 0x4C6 JUMP JUMPDEST SWAP3 POP POP PUSH2 0x100 PUSH2 0x589 DUP8 DUP3 DUP9 ADD PUSH2 0x50A JUMP JUMPDEST SWAP2 POP POP SWAP3 SWAP6 SWAP2 SWAP5 POP SWAP3 POP JUMP JUMPDEST PUSH1 0x0 DUP2 ISZERO ISZERO SWAP1 POP SWAP2 SWAP1 POP JUMP JUMPDEST PUSH2 0x5AA DUP2 PUSH2 0x595 JUMP JUMPDEST DUP3 MSTORE POP POP JUMP JUMPDEST PUSH1 0x0 PUSH1 0x20 DUP3 ADD SWAP1 POP PUSH2 0x5C5 PUSH1 0x0 DUP4 ADD DUP5 PUSH2 0x5A1 JUMP JUMPDEST SWAP3 SWAP2 POP POP JUMP INVALID LOG2 PUSH5 0x6970667358 0x22 SLT KECCAK256 ADD 0xBE DELEGATECALL DUP3 SWAP5 DUP7 PUSH0 AND PUSH13 0x7290C687262F95592A7E3F731A SHR ADDMOD 0xC6 0xD0 0xE5 0xAD PUSH25 0xF9BF0A64736F6C634300081C00330000000000000000000000 "
        },
        "methodIdentifiers": {
          "verifyProof(uint256[2],uint256[2][2],uint256[2],uint256[1])": "43753b4d"
        }
      }
    }
  }
}